{
  "contractName": "Filedrop",
  "abi": [
    {
      "inputs": [],
      "payable": false,
      "stateMutability": "nonpayable",
      "type": "constructor"
    },
    {
      "constant": true,
      "inputs": [],
      "name": "getOwner",
      "outputs": [
        {
          "name": "",
          "type": "address"
        }
      ],
      "payable": false,
      "stateMutability": "view",
      "type": "function"
    },
    {
      "constant": true,
      "inputs": [
        {
          "name": "_index",
          "type": "uint256"
        }
      ],
      "name": "fetchUserActivity",
      "outputs": [
        {
          "name": "",
          "type": "string"
        }
      ],
      "payable": false,
      "stateMutability": "view",
      "type": "function"
    },
    {
      "constant": true,
      "inputs": [],
      "name": "fetchFilesSharedWithUserCount",
      "outputs": [
        {
          "name": "",
          "type": "uint256"
        }
      ],
      "payable": false,
      "stateMutability": "view",
      "type": "function"
    },
    {
      "constant": true,
      "inputs": [],
      "name": "fetchUserUploadedFilesCount",
      "outputs": [
        {
          "name": "",
          "type": "uint256"
        }
      ],
      "payable": false,
      "stateMutability": "view",
      "type": "function"
    },
    {
      "constant": true,
      "inputs": [],
      "name": "fetchPublicFileCount",
      "outputs": [
        {
          "name": "",
          "type": "uint256"
        }
      ],
      "payable": false,
      "stateMutability": "view",
      "type": "function"
    },
    {
      "constant": true,
      "inputs": [],
      "name": "fetchUserActivityCount",
      "outputs": [
        {
          "name": "",
          "type": "uint256"
        }
      ],
      "payable": false,
      "stateMutability": "view",
      "type": "function"
    },
    {
      "constant": false,
      "inputs": [
        {
          "name": "_hash",
          "type": "string"
        },
        {
          "name": "_fileName",
          "type": "string"
        },
        {
          "name": "_isPublic",
          "type": "bool"
        },
        {
          "name": "_activity",
          "type": "string"
        }
      ],
      "name": "uploadAFile",
      "outputs": [],
      "payable": false,
      "stateMutability": "nonpayable",
      "type": "function"
    },
    {
      "constant": true,
      "inputs": [
        {
          "name": "_index",
          "type": "uint256"
        }
      ],
      "name": "fetchAFile",
      "outputs": [
        {
          "name": "",
          "type": "string"
        },
        {
          "name": "",
          "type": "string"
        },
        {
          "name": "",
          "type": "uint256"
        }
      ],
      "payable": false,
      "stateMutability": "view",
      "type": "function"
    },
    {
      "constant": false,
      "inputs": [
        {
          "name": "_index",
          "type": "uint256"
        },
        {
          "name": "_reciever",
          "type": "address"
        },
        {
          "name": "_activity",
          "type": "string"
        }
      ],
      "name": "shareAFile",
      "outputs": [],
      "payable": false,
      "stateMutability": "nonpayable",
      "type": "function"
    },
    {
      "constant": true,
      "inputs": [
        {
          "name": "_index",
          "type": "uint256"
        }
      ],
      "name": "fetchASharedFile",
      "outputs": [
        {
          "name": "",
          "type": "string"
        },
        {
          "name": "",
          "type": "string"
        },
        {
          "name": "",
          "type": "uint256"
        },
        {
          "name": "",
          "type": "uint256"
        },
        {
          "name": "",
          "type": "address"
        }
      ],
      "payable": false,
      "stateMutability": "view",
      "type": "function"
    },
    {
      "constant": true,
      "inputs": [
        {
          "name": "_index",
          "type": "uint256"
        }
      ],
      "name": "fetchPublicFile",
      "outputs": [
        {
          "name": "",
          "type": "string"
        },
        {
          "name": "",
          "type": "string"
        },
        {
          "name": "",
          "type": "uint256"
        },
        {
          "name": "",
          "type": "address"
        }
      ],
      "payable": false,
      "stateMutability": "view",
      "type": "function"
    }
  ],
  "bytecode": "0x608060405234801561001057600080fd5b50336000806101000a81548173ffffffffffffffffffffffffffffffffffffffff021916908373ffffffffffffffffffffffffffffffffffffffff160217905550611c00806100606000396000f3fe608060405234801561001057600080fd5b50600436106100a95760003560e01c80636e18c843116100715780636e18c8431461043d578063893d20e81461045b5780639a3026b3146104a5578063a5c75e641461069a578063a5d6fb1a146107e7578063f2c4b61814610805576100a9565b8063127abcd1146100ae5780631d6e3263146101935780633910cecb146102ad5780634cff1494146102cb57806352ef8fda146102e9575b600080fd5b610191600480360360608110156100c457600080fd5b8101908080359060200190929190803573ffffffffffffffffffffffffffffffffffffffff1690602001909291908035906020019064010000000081111561010b57600080fd5b82018360208201111561011d57600080fd5b8035906020019184600183028401116401000000008311171561013f57600080fd5b91908080601f016020809104026020016040519081016040528093929190818152602001838380828437600081840152601f19601f8201169050808301925050505050505091929192905050506108ac565b005b6101bf600480360360208110156101a957600080fd5b8101908080359060200190929190505050610ce1565b604051808060200180602001848152602001838103835286818151815260200191508051906020019080838360005b838110156102095780820151818401526020810190506101ee565b50505050905090810190601f1680156102365780820380516001836020036101000a031916815260200191505b50838103825285818151815260200191508051906020019080838360005b8381101561026f578082015181840152602081019050610254565b50505050905090810190601f16801561029c5780820380516001836020036101000a031916815260200191505b509550505050505060405180910390f35b6102b5610f25565b6040518082815260200191505060405180910390f35b6102d3610f2f565b6040518082815260200191505060405180910390f35b610315600480360360208110156102ff57600080fd5b8101908080359060200190929190505050610f76565b6040518080602001806020018681526020018581526020018473ffffffffffffffffffffffffffffffffffffffff1673ffffffffffffffffffffffffffffffffffffffff168152602001838103835288818151815260200191508051906020019080838360005b8381101561039757808201518184015260208101905061037c565b50505050905090810190601f1680156103c45780820380516001836020036101000a031916815260200191505b50838103825287818151815260200191508051906020019080838360005b838110156103fd5780820151818401526020810190506103e2565b50505050905090810190601f16801561042a5780820380516001836020036101000a031916815260200191505b5097505050505050505060405180910390f35b61044561128b565b6040518082815260200191505060405180910390f35b6104636112d2565b604051808273ffffffffffffffffffffffffffffffffffffffff1673ffffffffffffffffffffffffffffffffffffffff16815260200191505060405180910390f35b610698600480360360808110156104bb57600080fd5b81019080803590602001906401000000008111156104d857600080fd5b8201836020820111156104ea57600080fd5b8035906020019184600183028401116401000000008311171561050c57600080fd5b91908080601f016020809104026020016040519081016040528093929190818152602001838380828437600081840152601f19601f8201169050808301925050505050505091929192908035906020019064010000000081111561056f57600080fd5b82018360208201111561058157600080fd5b803590602001918460018302840111640100000000831117156105a357600080fd5b91908080601f016020809104026020016040519081016040528093929190818152602001838380828437600081840152601f19601f8201169050808301925050505050505091929192908035151590602001909291908035906020019064010000000081111561061257600080fd5b82018360208201111561062457600080fd5b8035906020019184600183028401116401000000008311171561064657600080fd5b91908080601f016020809104026020016040519081016040528093929190818152602001838380828437600081840152601f19601f8201169050808301925050505050505091929192905050506112fb565b005b6106c6600480360360208110156106b057600080fd5b81019080803590602001909291905050506115f6565b6040518080602001806020018581526020018473ffffffffffffffffffffffffffffffffffffffff1673ffffffffffffffffffffffffffffffffffffffff168152602001838103835287818151815260200191508051906020019080838360005b83811015610742578082015181840152602081019050610727565b50505050905090810190601f16801561076f5780820380516001836020036101000a031916815260200191505b50838103825286818151815260200191508051906020019080838360005b838110156107a857808201518184015260208101905061078d565b50505050905090810190601f1680156107d55780820380516001836020036101000a031916815260200191505b50965050505050505060405180910390f35b6107ef6117bd565b6040518082815260200191505060405180910390f35b6108316004803603602081101561081b57600080fd5b8101908080359060200190929190505050611804565b6040518080602001828103825283818151815260200191508051906020019080838360005b83811015610871578082015181840152602081019050610856565b50505050905090810190601f16801561089e5780820380516001836020036101000a031916815260200191505b509250505060405180910390f35b6108b4611a23565b600160003373ffffffffffffffffffffffffffffffffffffffff1673ffffffffffffffffffffffffffffffffffffffff16815260200190815260200160002060008581526020019081526020016000206040518060a0016040529081600082018054600181600116156101000203166002900480601f0160208091040260200160405190810160405280929190818152602001828054600181600116156101000203166002900480156109a85780601f1061097d576101008083540402835291602001916109a8565b820191906000526020600020905b81548152906001019060200180831161098b57829003601f168201915b50505050508152602001600182018054600181600116156101000203166002900480601f016020809104026020016040519081016040528092919081815260200182805460018160011615610100020316600290048015610a4a5780601f10610a1f57610100808354040283529160200191610a4a565b820191906000526020600020905b815481529060010190602001808311610a2d57829003601f168201915b50505050508152602001600282015481526020016003820160009054906101000a900460ff161515151581526020016003820160019054906101000a900473ffffffffffffffffffffffffffffffffffffffff1673ffffffffffffffffffffffffffffffffffffffff1673ffffffffffffffffffffffffffffffffffffffff168152505090506001600460008573ffffffffffffffffffffffffffffffffffffffff1673ffffffffffffffffffffffffffffffffffffffff1681526020019081526020016000205401600460008573ffffffffffffffffffffffffffffffffffffffff1673ffffffffffffffffffffffffffffffffffffffff16815260200190815260200160002081905550610b5e611a6a565b6040518060a001604052808360000151815260200183602001518152602001836040015181526020014281526020013373ffffffffffffffffffffffffffffffffffffffff16815250905080600360008673ffffffffffffffffffffffffffffffffffffffff1673ffffffffffffffffffffffffffffffffffffffff1681526020019081526020016000206000600460008873ffffffffffffffffffffffffffffffffffffffff1673ffffffffffffffffffffffffffffffffffffffff1681526020019081526020016000205481526020019081526020016000206000820151816000019080519060200190610c55929190611aaf565b506020820151816001019080519060200190610c72929190611aaf565b50604082015181600201556060820151816003015560808201518160040160006101000a81548173ffffffffffffffffffffffffffffffffffffffff021916908373ffffffffffffffffffffffffffffffffffffffff160217905550905050610cda836118f6565b5050505050565b6060806000600160003373ffffffffffffffffffffffffffffffffffffffff1673ffffffffffffffffffffffffffffffffffffffff1681526020019081526020016000206000858152602001908152602001600020600001600160003373ffffffffffffffffffffffffffffffffffffffff1673ffffffffffffffffffffffffffffffffffffffff1681526020019081526020016000206000868152602001908152602001600020600101600160003373ffffffffffffffffffffffffffffffffffffffff1673ffffffffffffffffffffffffffffffffffffffff168152602001908152602001600020600087815260200190815260200160002060020154828054600181600116156101000203166002900480601f016020809104026020016040519081016040528092919081815260200182805460018160011615610100020316600290048015610e755780601f10610e4a57610100808354040283529160200191610e75565b820191906000526020600020905b815481529060010190602001808311610e5857829003601f168201915b50505050509250818054600181600116156101000203166002900480601f016020809104026020016040519081016040528092919081815260200182805460018160011615610100020316600290048015610f115780601f10610ee657610100808354040283529160200191610f11565b820191906000526020600020905b815481529060010190602001808311610ef457829003601f168201915b505050505091509250925092509193909250565b6000600554905090565b6000600460003373ffffffffffffffffffffffffffffffffffffffff1673ffffffffffffffffffffffffffffffffffffffff16815260200190815260200160002054905090565b6060806000806000600360003373ffffffffffffffffffffffffffffffffffffffff1673ffffffffffffffffffffffffffffffffffffffff1681526020019081526020016000206000878152602001908152602001600020600001600360003373ffffffffffffffffffffffffffffffffffffffff1673ffffffffffffffffffffffffffffffffffffffff1681526020019081526020016000206000888152602001908152602001600020600101600360003373ffffffffffffffffffffffffffffffffffffffff1673ffffffffffffffffffffffffffffffffffffffff168152602001908152602001600020600089815260200190815260200160002060020154600360003373ffffffffffffffffffffffffffffffffffffffff1673ffffffffffffffffffffffffffffffffffffffff16815260200190815260200160002060008a815260200190815260200160002060030154600360003373ffffffffffffffffffffffffffffffffffffffff1673ffffffffffffffffffffffffffffffffffffffff16815260200190815260200160002060008b815260200190815260200160002060040160009054906101000a900473ffffffffffffffffffffffffffffffffffffffff16848054600181600116156101000203166002900480601f0160208091040260200160405190810160405280929190818152602001828054600181600116156101000203166002900480156111d55780601f106111aa576101008083540402835291602001916111d5565b820191906000526020600020905b8154815290600101906020018083116111b857829003601f168201915b50505050509450838054600181600116156101000203166002900480601f0160208091040260200160405190810160405280929190818152602001828054600181600116156101000203166002900480156112715780601f1061124657610100808354040283529160200191611271565b820191906000526020600020905b81548152906001019060200180831161125457829003601f168201915b505050505093509450945094509450945091939590929450565b6000600860003373ffffffffffffffffffffffffffffffffffffffff1673ffffffffffffffffffffffffffffffffffffffff16815260200190815260200160002054905090565b60008060009054906101000a900473ffffffffffffffffffffffffffffffffffffffff16905090565b611303611a23565b6040518060a0016040528086815260200185815260200142815260200184151581526020013373ffffffffffffffffffffffffffffffffffffffff1681525090506001600260003373ffffffffffffffffffffffffffffffffffffffff1673ffffffffffffffffffffffffffffffffffffffff1681526020019081526020016000205401600260003373ffffffffffffffffffffffffffffffffffffffff1673ffffffffffffffffffffffffffffffffffffffff1681526020019081526020016000208190555080600160003373ffffffffffffffffffffffffffffffffffffffff1673ffffffffffffffffffffffffffffffffffffffff1681526020019081526020016000206000600260003373ffffffffffffffffffffffffffffffffffffffff1673ffffffffffffffffffffffffffffffffffffffff1681526020019081526020016000205481526020019081526020016000206000820151816000019080519060200190611476929190611aaf565b506020820151816001019080519060200190611493929190611aaf565b506040820151816002015560608201518160030160006101000a81548160ff02191690831515021790555060808201518160030160016101000a81548173ffffffffffffffffffffffffffffffffffffffff021916908373ffffffffffffffffffffffffffffffffffffffff1602179055509050506001151583151514156115e657600160055401600581905550806006600060055481526020019081526020016000206000820151816000019080519060200190611553929190611aaf565b506020820151816001019080519060200190611570929190611aaf565b506040820151816002015560608201518160030160006101000a81548160ff02191690831515021790555060808201518160030160016101000a81548173ffffffffffffffffffffffffffffffffffffffff021916908373ffffffffffffffffffffffffffffffffffffffff1602179055509050505b6115ef826118f6565b5050505050565b606080600080600660008681526020019081526020016000206000016006600087815260200190815260200160002060010160066000888152602001908152602001600020600201546006600089815260200190815260200160002060030160019054906101000a900473ffffffffffffffffffffffffffffffffffffffff16838054600181600116156101000203166002900480601f01602080910402602001604051908101604052809291908181526020018280546001816001161561010002031660029004801561170b5780601f106116e05761010080835404028352916020019161170b565b820191906000526020600020905b8154815290600101906020018083116116ee57829003601f168201915b50505050509350828054600181600116156101000203166002900480601f0160208091040260200160405190810160405280929190818152602001828054600181600116156101000203166002900480156117a75780601f1061177c576101008083540402835291602001916117a7565b820191906000526020600020905b81548152906001019060200180831161178a57829003601f168201915b5050505050925093509350935093509193509193565b6000600260003373ffffffffffffffffffffffffffffffffffffffff1673ffffffffffffffffffffffffffffffffffffffff16815260200190815260200160002054905090565b6060600760003373ffffffffffffffffffffffffffffffffffffffff1673ffffffffffffffffffffffffffffffffffffffff16815260200190815260200160002060008381526020019081526020016000208054600181600116156101000203166002900480601f0160208091040260200160405190810160405280929190818152602001828054600181600116156101000203166002900480156118ea5780601f106118bf576101008083540402835291602001916118ea565b820191906000526020600020905b8154815290600101906020018083116118cd57829003601f168201915b50505050509050919050565b6001600860003373ffffffffffffffffffffffffffffffffffffffff1673ffffffffffffffffffffffffffffffffffffffff1681526020019081526020016000205401600860003373ffffffffffffffffffffffffffffffffffffffff1673ffffffffffffffffffffffffffffffffffffffff1681526020019081526020016000208190555080600760003373ffffffffffffffffffffffffffffffffffffffff1673ffffffffffffffffffffffffffffffffffffffff1681526020019081526020016000206000600860003373ffffffffffffffffffffffffffffffffffffffff1673ffffffffffffffffffffffffffffffffffffffff1681526020019081526020016000205481526020019081526020016000209080519060200190611a1f929190611b2f565b5050565b6040518060a00160405280606081526020016060815260200160008152602001600015158152602001600073ffffffffffffffffffffffffffffffffffffffff1681525090565b6040518060a0016040528060608152602001606081526020016000815260200160008152602001600073ffffffffffffffffffffffffffffffffffffffff1681525090565b828054600181600116156101000203166002900490600052602060002090601f016020900481019282601f10611af057805160ff1916838001178555611b1e565b82800160010185558215611b1e579182015b82811115611b1d578251825591602001919060010190611b02565b5b509050611b2b9190611baf565b5090565b828054600181600116156101000203166002900490600052602060002090601f016020900481019282601f10611b7057805160ff1916838001178555611b9e565b82800160010185558215611b9e579182015b82811115611b9d578251825591602001919060010190611b82565b5b509050611bab9190611baf565b5090565b611bd191905b80821115611bcd576000816000905550600101611bb5565b5090565b9056fea165627a7a72305820961fe93c969a18ccb220d69be0b8616603630a8f582710bf3670cd3eaf1a0fa90029",
  "source": "pragma solidity ^0.5.0;\r\n\r\ncontract Filedrop{\r\n    address owner;\r\n    \r\n    struct userFile{\r\n        string hash;\r\n        string fileName;\r\n        uint256 creationTime;\r\n        bool isPublic;\r\n        address fileOwner;\r\n    }\r\n    \r\n    struct sharedFile{\r\n        string hash;\r\n        string fileName;\r\n        uint256 creationTime;\r\n        uint256 sharedTime;\r\n        address fileOwner;\r\n    }\r\n    \r\n    mapping(address => mapping(uint256 => userFile)) userUploadedFiles;\r\n    mapping(address => uint256) userUploadedFilesCount;\r\n    \r\n    mapping(address => mapping(uint256 => sharedFile)) filesSharedWithUser;\r\n    mapping(address => uint256) filesSharedWithUserCount;\r\n    \r\n    uint256 publicFilesCount;\r\n    mapping(uint256 => userFile) publicFiles;\r\n    \r\n    mapping(address => mapping(uint256 => string)) userActivity;\r\n    mapping(address => uint256) userActivityCount;\r\n    \r\n    constructor() public{\r\n        owner = msg.sender;\r\n    }\r\n\r\n    function getOwner() public view returns(address){return owner;}\r\n    \r\n    function addUserActivity(string memory _activity) internal{\r\n        userActivityCount[msg.sender] = userActivityCount[msg.sender] + 1;\r\n        userActivity[msg.sender][userActivityCount[msg.sender]] = _activity;\r\n    }\r\n    \r\n    function fetchUserActivity(uint256 _index) public view returns(string memory){\r\n        return userActivity[msg.sender][_index];\r\n    }\r\n    \r\n    function fetchFilesSharedWithUserCount() public view returns(uint256){\r\n        return filesSharedWithUserCount[msg.sender];\r\n    }\r\n    \r\n    function fetchUserUploadedFilesCount() public view returns(uint256){\r\n        return userUploadedFilesCount[msg.sender];\r\n    }\r\n    \r\n    function fetchPublicFileCount() public view returns(uint256){\r\n        return publicFilesCount;\r\n    }\r\n    \r\n    function fetchUserActivityCount() public view returns(uint256){\r\n        return userActivityCount[msg.sender];\r\n    }\r\n    \r\n    function uploadAFile(\r\n        string memory _hash,\r\n        string memory _fileName,\r\n        bool _isPublic,\r\n        string memory _activity\r\n        ) public{\r\n        userFile memory file = userFile(_hash,_fileName,now,_isPublic,msg.sender);\r\n        userUploadedFilesCount[msg.sender] = userUploadedFilesCount[msg.sender] + 1;\r\n        userUploadedFiles[msg.sender][userUploadedFilesCount[msg.sender]] = file;\r\n        if(_isPublic == true){\r\n            publicFilesCount = publicFilesCount + 1;\r\n            publicFiles[publicFilesCount] = file;\r\n        }\r\n        addUserActivity(_activity);\r\n    }\r\n    \r\n    function fetchAFile(uint256 _index) public view returns(\r\n            string memory,\r\n            string memory,\r\n            uint256\r\n        ){\r\n        return (\r\n                userUploadedFiles[msg.sender][_index].hash,\r\n                userUploadedFiles[msg.sender][_index].fileName,\r\n                userUploadedFiles[msg.sender][_index].creationTime\r\n            );\r\n    }\r\n    \r\n    function shareAFile(uint256 _index, address _reciever,string memory _activity) public{\r\n        userFile memory file = userUploadedFiles[msg.sender][_index];\r\n        filesSharedWithUserCount[_reciever] = filesSharedWithUserCount[_reciever] + 1;\r\n        sharedFile memory file2 = sharedFile(file.hash,file.fileName,file.creationTime,now,msg.sender);\r\n        filesSharedWithUser[_reciever][filesSharedWithUserCount[_reciever]] = file2;\r\n        addUserActivity(_activity);\r\n    }\r\n    \r\n    function fetchASharedFile(uint256 _index) public view returns(string memory,string memory,uint256,uint256,address){\r\n        return (\r\n                filesSharedWithUser[msg.sender][_index].hash,\r\n                filesSharedWithUser[msg.sender][_index].fileName,\r\n                filesSharedWithUser[msg.sender][_index].creationTime,\r\n                filesSharedWithUser[msg.sender][_index].sharedTime,\r\n                filesSharedWithUser[msg.sender][_index].fileOwner\r\n            );\r\n    }\r\n    \r\n    function fetchPublicFile(uint256 _index) public view returns(string memory,string memory,uint256,address){\r\n        return (\r\n                publicFiles[_index].hash,\r\n                publicFiles[_index].fileName,\r\n                publicFiles[_index].creationTime,\r\n                publicFiles[_index].fileOwner\r\n            );\r\n    }\r\n}",
  "sourcePath": "D:/Final year project/project/contracts/Filedrop.sol",
  "compiler": {
    "name": "solc",
    "version": "0.5.8+commit.23d335f2.Emscripten.clang"
  },
  "schemaVersion": "3.2.0",
  "updatedAt": "2020-06-03T17:12:13.763Z",
  "networkType": "ethereum",
  "devdoc": {
    "methods": {}
  },
  "userdoc": {
    "methods": {}
  }
}