{
  "contractName": "IPFS",
  "abi": [
    {
      "inputs": [],
      "payable": false,
      "stateMutability": "nonpayable",
      "type": "constructor"
    },
    {
      "constant": true,
      "inputs": [],
      "name": "getOwner",
      "outputs": [
        {
          "name": "",
          "type": "address"
        }
      ],
      "payable": false,
      "stateMutability": "view",
      "type": "function"
    },
    {
      "constant": false,
      "inputs": [
        {
          "name": "_ipfsHash",
          "type": "string"
        }
      ],
      "name": "uploadAfile",
      "outputs": [],
      "payable": false,
      "stateMutability": "nonpayable",
      "type": "function"
    },
    {
      "constant": true,
      "inputs": [],
      "name": "fetchTotalCount",
      "outputs": [
        {
          "name": "",
          "type": "uint256"
        }
      ],
      "payable": false,
      "stateMutability": "view",
      "type": "function"
    },
    {
      "constant": true,
      "inputs": [],
      "name": "fetchSharedWithUserFileCount",
      "outputs": [
        {
          "name": "",
          "type": "uint256"
        }
      ],
      "payable": false,
      "stateMutability": "view",
      "type": "function"
    },
    {
      "constant": true,
      "inputs": [
        {
          "name": "_index",
          "type": "uint256"
        }
      ],
      "name": "fetchAFile",
      "outputs": [
        {
          "name": "",
          "type": "string"
        }
      ],
      "payable": false,
      "stateMutability": "view",
      "type": "function"
    },
    {
      "constant": false,
      "inputs": [
        {
          "name": "_usersAddress",
          "type": "address"
        },
        {
          "name": "_ipfsHash",
          "type": "string"
        }
      ],
      "name": "shareAFile",
      "outputs": [],
      "payable": false,
      "stateMutability": "nonpayable",
      "type": "function"
    },
    {
      "constant": true,
      "inputs": [
        {
          "name": "_index",
          "type": "uint256"
        }
      ],
      "name": "fetchASharedFile",
      "outputs": [
        {
          "name": "",
          "type": "address"
        },
        {
          "name": "",
          "type": "string"
        }
      ],
      "payable": false,
      "stateMutability": "view",
      "type": "function"
    }
  ],
  "bytecode": "0x608060405234801561001057600080fd5b50336000806101000a81548173ffffffffffffffffffffffffffffffffffffffff021916908373ffffffffffffffffffffffffffffffffffffffff160217905550610b9d806100606000396000f3fe608060405234801561001057600080fd5b506004361061007d5760003560e01c80633579d9051161005b5780633579d9051461016557806343eb3ea31461022057806352ef8fda146102fb578063893d20e8146103d55761007d565b806315309e74146100825780631d6e3263146100a057806322387ec414610147575b600080fd5b61008a61041f565b6040518082815260200191505060405180910390f35b6100cc600480360360208110156100b657600080fd5b8101908080359060200190929190505050610466565b6040518080602001828103825283818151815260200191508051906020019080838360005b8381101561010c5780820151818401526020810190506100f1565b50505050905090810190601f1680156101395780820380516001836020036101000a031916815260200191505b509250505060405180910390f35b61014f610558565b6040518082815260200191505060405180910390f35b61021e6004803603602081101561017b57600080fd5b810190808035906020019064010000000081111561019857600080fd5b8201836020820111156101aa57600080fd5b803590602001918460018302840111640100000000831117156101cc57600080fd5b91908080601f016020809104026020016040519081016040528093929190818152602001838380828437600081840152601f19601f82011690508083019250505050505050919291929050505061059f565b005b6102f96004803603604081101561023657600080fd5b81019080803573ffffffffffffffffffffffffffffffffffffffff1690602001909291908035906020019064010000000081111561027357600080fd5b82018360208201111561028557600080fd5b803590602001918460018302840111640100000000831117156102a757600080fd5b91908080601f016020809104026020016040519081016040528093929190818152602001838380828437600081840152601f19601f8201169050808301925050505050505091929192905050506106cc565b005b6103276004803603602081101561031157600080fd5b8101908080359060200190929190505050610883565b604051808373ffffffffffffffffffffffffffffffffffffffff1673ffffffffffffffffffffffffffffffffffffffff16815260200180602001828103825283818151815260200191508051906020019080838360005b8381101561039957808201518184015260208101905061037e565b50505050905090810190601f1680156103c65780820380516001836020036101000a031916815260200191505b50935050505060405180910390f35b6103dd6109f3565b604051808273ffffffffffffffffffffffffffffffffffffffff1673ffffffffffffffffffffffffffffffffffffffff16815260200191505060405180910390f35b6000600560003373ffffffffffffffffffffffffffffffffffffffff1673ffffffffffffffffffffffffffffffffffffffff16815260200190815260200160002054905090565b6060600160003373ffffffffffffffffffffffffffffffffffffffff1673ffffffffffffffffffffffffffffffffffffffff16815260200190815260200160002060008381526020019081526020016000208054600181600116156101000203166002900480601f01602080910402602001604051908101604052809291908181526020018280546001816001161561010002031660029004801561054c5780601f106105215761010080835404028352916020019161054c565b820191906000526020600020905b81548152906001019060200180831161052f57829003601f168201915b50505050509050919050565b6000600260003373ffffffffffffffffffffffffffffffffffffffff1673ffffffffffffffffffffffffffffffffffffffff16815260200190815260200160002054905090565b6001600260003373ffffffffffffffffffffffffffffffffffffffff1673ffffffffffffffffffffffffffffffffffffffff1681526020019081526020016000205401600260003373ffffffffffffffffffffffffffffffffffffffff1673ffffffffffffffffffffffffffffffffffffffff1681526020019081526020016000208190555080600160003373ffffffffffffffffffffffffffffffffffffffff1673ffffffffffffffffffffffffffffffffffffffff1681526020019081526020016000206000600260003373ffffffffffffffffffffffffffffffffffffffff1673ffffffffffffffffffffffffffffffffffffffff16815260200190815260200160002054815260200190815260200160002090805190602001906106c8929190610a1c565b5050565b6106d4610a9c565b60405180604001604052803373ffffffffffffffffffffffffffffffffffffffff1681526020018381525090506001600560008573ffffffffffffffffffffffffffffffffffffffff1673ffffffffffffffffffffffffffffffffffffffff1681526020019081526020016000205401600560008573ffffffffffffffffffffffffffffffffffffffff1673ffffffffffffffffffffffffffffffffffffffff1681526020019081526020016000208190555080600460008573ffffffffffffffffffffffffffffffffffffffff1673ffffffffffffffffffffffffffffffffffffffff1681526020019081526020016000206000600560008773ffffffffffffffffffffffffffffffffffffffff1673ffffffffffffffffffffffffffffffffffffffff16815260200190815260200160002054815260200190815260200160002060008201518160000160006101000a81548173ffffffffffffffffffffffffffffffffffffffff021916908373ffffffffffffffffffffffffffffffffffffffff160217905550602082015181600101908051906020019061087a929190610acc565b50905050505050565b60006060600460003373ffffffffffffffffffffffffffffffffffffffff1673ffffffffffffffffffffffffffffffffffffffff168152602001908152602001600020600084815260200190815260200160002060000160009054906101000a900473ffffffffffffffffffffffffffffffffffffffff16600460003373ffffffffffffffffffffffffffffffffffffffff1673ffffffffffffffffffffffffffffffffffffffff1681526020019081526020016000206000858152602001908152602001600020600101808054600181600116156101000203166002900480601f0160208091040260200160405190810160405280929190818152602001828054600181600116156101000203166002900480156109e35780601f106109b8576101008083540402835291602001916109e3565b820191906000526020600020905b8154815290600101906020018083116109c657829003601f168201915b5050505050905091509150915091565b60008060009054906101000a900473ffffffffffffffffffffffffffffffffffffffff16905090565b828054600181600116156101000203166002900490600052602060002090601f016020900481019282601f10610a5d57805160ff1916838001178555610a8b565b82800160010185558215610a8b579182015b82811115610a8a578251825591602001919060010190610a6f565b5b509050610a989190610b4c565b5090565b6040518060400160405280600073ffffffffffffffffffffffffffffffffffffffff168152602001606081525090565b828054600181600116156101000203166002900490600052602060002090601f016020900481019282601f10610b0d57805160ff1916838001178555610b3b565b82800160010185558215610b3b579182015b82811115610b3a578251825591602001919060010190610b1f565b5b509050610b489190610b4c565b5090565b610b6e91905b80821115610b6a576000816000905550600101610b52565b5090565b9056fea165627a7a72305820215a1c7b5ee54b41a91f6ff200c8f6b8fadf09ce1432e1c36676bd28df21bed30029",
  "source": "pragma solidity ^0.5.0;\r\n\r\ncontract IPFS{\r\n    \r\n    address owner;\r\n    \r\n    constructor() public{\r\n        owner = msg.sender;\r\n    }\r\n    \r\n    function getOwner() public view returns(address){\r\n        return owner;\r\n    }\r\n    \r\n    mapping(address => mapping(uint256 => string)) userFiles;\r\n    mapping(address => uint256) userFilesCount;\r\n    uint256 totalFilesCount;\r\n    \r\n    struct sharedFile{\r\n        address ownerOfFile;\r\n        string ipfsHash;\r\n    }\r\n    \r\n    mapping(address => mapping(uint256 => sharedFile)) sharedFilesWithuser;\r\n    mapping(address => uint256) sharedWithUserFileCount;\r\n    \r\n    function uploadAfile(string memory _ipfsHash) public{\r\n        userFilesCount[msg.sender] = userFilesCount[msg.sender] + 1;\r\n        userFiles[msg.sender][userFilesCount[msg.sender]] = _ipfsHash;\r\n    }\r\n    \r\n    function fetchTotalCount() public view returns(uint256){\r\n        return userFilesCount[msg.sender];\r\n    }\r\n    \r\n    function fetchSharedWithUserFileCount() public view returns(uint256){\r\n        return sharedWithUserFileCount[msg.sender];\r\n    }\r\n    \r\n    function fetchAFile(uint256 _index) public view returns(string memory){\r\n        return userFiles[msg.sender][_index];\r\n    }\r\n    \r\n    function shareAFile(address _usersAddress,string memory _ipfsHash) public{\r\n        sharedFile memory file = sharedFile(msg.sender,_ipfsHash);\r\n        sharedWithUserFileCount[_usersAddress] = sharedWithUserFileCount[_usersAddress] + 1;\r\n        sharedFilesWithuser[_usersAddress][sharedWithUserFileCount[_usersAddress]] = file;\r\n    }\r\n    \r\n    function fetchASharedFile(uint256 _index) public view returns(address, string memory){\r\n        return (sharedFilesWithuser[msg.sender][_index].ownerOfFile, sharedFilesWithuser[msg.sender][_index].ipfsHash);\r\n    }\r\n    \r\n}",
  "sourcePath": "D:/Final year project/project/contracts/Ipfs.sol",
  "compiler": {
    "name": "solc",
    "version": "0.5.8+commit.23d335f2.Emscripten.clang"
  },
  "schemaVersion": "3.2.0",
  "updatedAt": "2020-06-03T17:12:13.011Z",
  "networkType": "ethereum",
  "devdoc": {
    "methods": {}
  },
  "userdoc": {
    "methods": {}
  }
}